:020000040800F2
:10000000F04600206D02000865130008F50E000898
:1000100061130008690B0008B54E000800000000DD
:100020000000000000000000000000002D16000885
:100030006D0B000800000000191400081D170008CF
:10004000870200088702000887020008870200086C
:10005000870200088702000887020008870200085C
:10006000870200088702000887020008870200084C
:10007000870200088702000887020008870200083C
:10008000870200088702000887020008870200082C
:10009000870200088702000887020008870200081C
:1000A000870200088702000887020008870200080C
:1000B000870200080119000887020008870200086B
:1000C00087020008870200088702000887020008EC
:1000D0008702000887020008B91900088702000893
:1000E000870200088702000800000000870200085D
:1000F00087020008870200088702000887020008BC
:10010000000000008702000887020008870200083C
:1001100065190008870200088702000887020008A6
:10012000870200088702000887020008870200088B
:10013000870200088702000887020008870200087B
:10014000870200088702000887020008551E000881
:10015000870200088702000887020008870200085B
:10016000870200088702000887020008870200084B
:10017000870200088702000887020008870200083B
:10018000870200088702000887020008870200082B
:10019000870200088702000887020008870200081B
:1001A00000F002F800F052F80AA090E8000C824437
:1001B0008344AAF10107DA4501D100F047F8AFF214
:1001C000090EBAE80F0013F0010F18BFFB1A43F035
:1001D00001031847D0540000F0540000103A24BF27
:1001E00078C878C1FAD8520724BF30C830C144BF9C
:1001F00004680C60704700000023002400250026DE
:10020000103A28BF78C1FBD8520728BF30C148BF79
:100210000B607047642900F00381782900F03C816D
:10022000732900F05E83002070471FB59DE803002E
:1002300000F0B6FA00F098FA04000020002105F062
:10024000EFF8401C60601FBD10B510BD00F00BFC46
:100250001146FFF7EAFF04F061FE00F029FC03B449
:10026000FFF7F2FF03BC00F059FC0000094880478B
:1002700009480047FEE7FEE7FEE7FEE7FEE7FEE788
:10028000FEE7FEE7FEE7FEE704480549054A064BA0
:100290007047000095180008A1010008F03E0020FA
:1002A000F0460020F0420020F042002010B500F09F
:1002B0005BFA001D10BD00BF6951000070B5064615
:1002C00000F04EFA056806F10B0020F00704B44276
:1002D0009CBF002070BD2B466A68BAB11068A0426E
:1002E00010D304F1080188423CBF5068586007D31E
:1002F0005168101941601168091B01605860146051
:10030000101D70BD13465268002AE7D121462846C9
:1003100000F032FA0028DED170BD70B50446051F2A
:1003200000F01EFA0068002C14BF446870BD002C59
:1003300018BFAC423CBF20466468F8D301680A1875
:10034000AA4218BF456003D12A68054611440160DE
:1003500028684119A1421CBF6C6070BD616869606A
:1003600021680844286070BD0FB4044910B503AA81
:10037000029800F0BBFA10BC5DF814FB28000020C6
:1003800070B5044685690068C10601D5302600E0D5
:100390002026C00707D070BDD4E901213046904720
:1003A000206A401C20626D1EF6D570BD70B50446F3
:1003B00085690078C00707D170BDD4E901212020EC
:1003C0009047206A401C20626D1EF6D570BD70B546
:1003D0000C460546012A05D02878800600D5EA6932
:1003E000002302E0012305E05B1C934202D2E05CA3
:1003F0000028F9D1A869E618C01AA861286A18442B
:1004000028622846FFF7BCFF04E0D5E9012114F873
:10041000010B9047B442F8D32846FFF7C7FF70BDE1
:100420002DE9F0410646002410687529314616A5CD
:1004300010D0AFF30080002802DA404213A507E095
:1004400031688A0701D512A502E0490704D511A534
:10045000012401E0AFF3008000210A2206F1240705
:1004600009E0B0FBF2FCB0FBF2F302FB1C00303001
:1004700078541846491C0028F3D123462A463046B2
:10048000BDE8F04100F0C2B9000000002D000000FE
:100490002B0000002000000070B504460D462146E8
:1004A0001068AFF300802188090502D50F4A7A440D
:1004B00002E00E4A7A440E32002104F1240305E0E2
:1004C00000F00F060009965D5E54491C0028F7D124
:1004D00020780023000704D5702D02D009B1022333
:1004E00011322046BDE8704000F090B95A5100002A
:1004F0002DE9F05F894604464FF0000ADFF824B189
:10050000FB44C0F820A02046E168884700287DD041
:10051000252806D0D4E901219047206A401C20629A
:10052000F1E700255F462046E16888472028064617
:1005300007DB312E05D2B81910F8200C08B105439D
:10054000F1E7A80701D525F00405C4F81CA0002791
:10055000C4F818A02A2E09D0304604F0ADFC38B3F8
:1005600004EB8708303EC8F8186019E059F8041BFE
:10057000204604EB87029161E1688847012F064617
:1005800018D1E069002820DA25F020051DE0D8F810
:10059000180000EB800006EB40003038C8F8180067
:1005A0002046E1688847064604F086FC0028EED124
:1005B000012F0AD02E2E08D12046E16888477F1CE3
:1005C0000646022F45F02005C4DBA069002803DAA7
:1005D000404245F00105A061E80701D025F0100573
:1005E000A6B1A6F14100192802D8203645F40065CD
:1005F0004A463146204625604D46FFF70BFE60B166
:10060000012807D0ED1D25F0070000E007E000F10C
:10061000080978E705F1040975E730467AE7206AAA
:10062000BDE8F09F30510000032A40F2308010F006
:10063000030C00F0158011F8013BBCF1020F62447D
:1006400098BF11F801CB00F8013B38BF11F8013B0E
:10065000A2F1040298BF00F801CB38BF00F8013BBB
:1006600011F0030300F02580083AC0F0088051F82B
:10067000043B083A51F804CBA0E80810F5E7121D36
:100680005CBF51F8043B40F8043BAFF30080D20755
:1006900024BF11F8013B11F801CB48BF11F8012B21
:1006A00024BF00F8013B00F801CB48BF00F8012B44
:1006B000704710B5203AC0F00B80B1E81850203ACE
:1006C000A0E81850B1E81850A0E81850BFF4F5AFF2
:1006D0005FEA027C24BFB1E81850A0E8185044BF7C
:1006E00018C918C0BDE810405FEA827C24BF51F8E9
:1006F000043B40F8043B08BF7047D20728BF31F8DD
:10070000023B48BF11F8012B28BF20F8023B48BF2D
:1007100000F8012B70474FF000020429C0F012804E
:1007200010F0030C00F0F680CCF1040CBCF1020FC9
:1007300018BF00F8012BA8BF20F8022BA1EB0C0179
:1007400000F0E8B85FEAC17C24BF00F8012B00F894
:10075000012B48BF00F8012B704770477047704766
:1007600000487047943E002000487047AC3E00208F
:10077000704770477047704738B504460A460020F6
:100780006946AFF30080002808BF38BD02460099D3
:10079000204600F0E9F8012038BD012000F01AB928
:1007A000F8B5AFF30080054600200C46102000BFCE
:1007B0000646A819A0420DD9324669460020AFF37B
:1007C0000080070008BF00F005F90098A04218BF9C
:1007D0000546C419FFF7C4FF05600746F01D20F069
:1007E00007004619284600F00AF8B44208BFF8BDD1
:1007F000A21B31463868BDE8F84000F0B5B80021CA
:100800000160C0E901107047102070472DE9F047E2
:100810000D4699469246044600F124080168880670
:1008200004D5E06921F01001216000E00120A84218
:1008300001DD471B00E00027A1697A1902EB0900DE
:10084000081AA0612078C00602D42046FFF798FD60
:10085000002608E0D4E901211AF806009047206A32
:10086000401C761C20624E45F4DB2078C0060AD579
:100870002046FFF785FD06E0D4E9012130209047AE
:10088000206A401C2062381EA7F10107F4DC07E053
:10089000D4E9012118F805009047206A401C206225
:1008A000281EA5F10105F3DC2046FFF77FFD207827
:1008B000000602D50220BDE8F0870120FBE710B555
:1008C000436913B1AFF3008001E0FFF780FD012021
:1008D00010BD127800F124010A7000224A70012232
:1008E000EDE711684FF0FF32E9E70000074B70B504
:1008F0000D467B4400F057F80446284600F066F8A1
:1009000010B14FF0FF3070BD204670BDD3450000E0
:100910004FF0000200B5134694469646203922BF98
:10092000A0E80C50A0E80C50B1F12001BFF4F7AFE3
:10093000090728BFA0E80C5048BF0CC05DF804EBC5
:10094000890028BF40F8042B08BF704748BF20F833
:10095000022B11F0804F18BF00F8012B70470000E8
:10096000004870478C3E0020034640688C460028B3
:1009700018BF88423CBF03464068F8D31868184443
:10098000884207D00CF1030020F00700001D411A37
:10099000521A0146081D0A60FFF7BFBC01694A1CD4
:1009A00002610878704700B58FB0CDE901310021B0
:1009B000059105497944CDE9031011466846FFF7D2
:1009C00097FD0FB000BD0000E5FFFFFF007B00F0CA
:1009D0008000704710B500F079F8BDE8104000F0D5
:1009E00070B800004FF0013C50F8042B51F8043B64
:1009F0009A4221D1A2EB0C03934313EACC1317D1F3
:100A000050F8042B51F8043B9A4215D1A2EB0C0389
:100A1000934313EACC130BD150F8042B51F8043B49
:100A20009A4209D1A2EB0C03934313EACC13DBD017
:100A30004FF00000704700BFD01A01BAB1FA81F13F
:100A400001F0180122FA01F0CB40C1F12001DBB224
:100A5000C0B2C01A2CFA01F3D11A914311EAC311A2
:100A6000E6D1704770477546FFF77AFFAE4605003E
:100A70006946534620F00700854618B020B5FFF7B9
:100A800003FCBDE820404FF000064FF000074FF098
:100A900000084FF0000B21F00701AC46ACE8C0099C
:100AA000ACE8C009ACE8C009ACE8C0098D467047A5
:100AB00010B50446AFF300802046BDE81040FFF7B4
:100AC000CEBB002801D000F029B8704710B501282E
:100AD00005D0002103A000F027F8012010BD09A1D6
:100AE000F8E7000053494752544D454D3A204F75A1
:100AF00074206F662068656170206D656D6F727916
:100B0000000000003A2048656170206D656D6F72CD
:100B10007920636F727275707465640001491820E2
:100B2000ABBEFEE72600020070B505460C460A2063
:100B300000E06D1C00F011F835B128780028F8D1DC
:100B400002E0641C00F009F814B120780028F8D104
:100B5000BDE870400A20AFF3008008B569468DF803
:100B600000000320ABBE08BD00BFFEE700BFFEE7EC
:100B700010B56FF0040000F0BDFD0A4800680A4996
:100B8000B0FBF1F0094908700846007800EB40011D
:100B9000C1EBC0104FF6FF7101EAC00004490880A4
:100BA00010BD00001400002000127A002C0000206C
:100BB0002E0000200146114A12884A434FF0E023DC
:100BC0005A6100229A611A46126942F001021A61C2
:100BD00000BF4FF0E022106900F001021AB100F4EA
:100BE0008032002AF5D04FF0E022126922F0010293
:100BF0004FF0E0231A6100229A6170472E00002016
:100C00000146114A12784A434FF0E0235A6100220C
:100C10009A611A46126942F001021A6100BF4FF050
:100C2000E022106900F001021AB100F48032002ABB
:100C3000F5D04FF0E022126922F001024FF0E023DC
:100C40001A6100229A6170472C0000200149086057
:100C5000704700001404014001460020034A126856
:100C60000A400AB1012000E000207047140401404E
:100C7000002123498279002A3AD00A461268036883
:100C80009A430B461A600A1D126803689A430B1DAB
:100C90001A60027911440A6803681A430A60184A04
:100CA0000832126803689A43154B08331A601A1DFC
:100CB000126803689A43124B0C331A604279102A67
:100CC0000ED11A1F126803681A430D4B08331A60BD
:100CD0001A1D126803681A43094B0C331A600DE0A1
:100CE0000749427911440A6803681A430A6005E01B
:100CF000027911440A6803689A430A607047000049
:100D0000000401402DE9F0410246002500260020A4
:100D100000230024002791F803C00CF00F0591F880
:100D200003C00CF0100CBCF1000F03D091F802C00E
:100D30004CEA050591F800C0BCF1000F31D01468F1
:100D400000202BE04FF0010C0CFA00F3B1F800C0CA
:100D50000CEA03069E4220D183004FF00F0C0CFAE0
:100D600003F7BC4305FA03FC4CEA040491F803C002
:100D7000BCF1280F06D14FF0010C0CFA00FCC2F8B0
:100D800014C00AE091F803C0BCF1480F05D14FF040
:100D9000010C0CFA00FCC2F810C0401C0828D1D38A
:100DA0001460B1F800C0BCF1FF0F34DD54680020BE
:100DB0002EE000F1080C4FF0010808FA0CF3B1F82E
:100DC00000C00CEA03069E4221D183004FF00F0CB5
:100DD0000CFA03F7BC4305FA03FC4CEA040491F84F
:100DE00003C0BCF1280F05D100F1080C08FA0CF87B
:100DF000C2F8148091F803C0BCF1480F07D100F18C
:100E0000080C4FF0010808FA0CF8C2F81080401CDA
:100E10000828CED35460BDE8F0810000F0B50D463F
:100E2000002200230021002400F00046B6F1004F0C
:100E300002D12D4EF16901E02B4E7168C0F30344DD
:100E400082B200F00046B6F1004F1BD100F440160C
:100E5000B6F5401F06D104F11006032707FA06F382
:100E6000994330E000F48016B6F5801F04D10326C4
:100E700006FA04F3994326E0460D360102FA06F617
:100E8000B14320E000F44016B6F5401F08D121F030
:100E90007061154E766826F07066134F7E6012E022
:100EA00000F48016B6F5801F06D1032606FA04F377
:100EB000994341F0706106E0460D360102FA06F6EC
:100EC000B14341F0706125B1460D360102FA06F6D4
:100ED000314300F00046B6F1004F02D1024EF161FD
:100EE00001E0014E7160F0BD0000014001468A68DA
:100EF00090B2704700BFFEE7F8B507460C461546AE
:100F000080201C490870062048704FF4007048800B
:100F1000002088800820C8802B466A462146384633
:100F200003F08AFA06460EB13046F8BD1148C08873
:100F3000BDF80010884201DD1720F6E760880D49F2
:100F4000C8800090BDF800100BA0FFF70DFA2B46EB
:100F50006A462146384603F06FFA06466079094929
:100F6000C8750448C2882146384603F0DDFB304688
:100F7000DBE70000A8000020096C656E3D253032DB
:100F8000780A0000082000200FB42DE9F041054642
:100F900000262C4600271FE0D4F8E90000789DF8D1
:100FA0001C10884216D1D4F8E90040789DF81D1035
:100FB00088420FD1D4F8E90080789DF81E1088424D
:100FC00008D1D4F8E900817907A88079814201D15C
:100FD000012705E0D4F8E940D4F8E9000028DBD186
:100FE00000BF27B90120BDE8F0015DF814FB54F8FB
:100FF000E96F2068D0F8E90044F8E9093046FFF7C6
:101000008CF90020EFE770B50025ED20FFF756F9C9
:101010000446E9212046FFF77EFBFF202070A070E8
:1010200060700020C4F8E9002546284670BD0FB462
:1010300070B506460025344605A9304600F046F84E
:1010400018B9012070BC5DF814FB01E0D4F8E94048
:10105000D4F8E9000028F9D1ED20FFF72FF9054673
:10106000E92205A92846FFF7DFFAD4F8E900C5F818
:10107000E900C4F8E9500020E4E70FB410B50446D5
:10108000D4F8E9401EE020789DF80C10884217D172
:1010900060789DF80D10884212D1A0789DF80E104E
:1010A00088420DD1A1799DF81200814208D1E92230
:1010B0003EA92046FFF7B8FA002010BC5DF814FBEB
:1010C000D4F8E940002CDED10120F6E770B50446E3
:1010D0000D46D4F8E94018E020782978884212D1EA
:1010E0006078697888420ED1A078A97888420AD1C0
:1010F000A179A879814206D1E92221462846FFF745
:1011000093FA002070BDD4F8E940002CE4D101200E
:10111000F8E70FB400B5B7B00BE0D9223CA9684698
:10112000FFF7C7FA38A80FC800F008F800B900E0C8
:1011300000E0F2E700BF37B05DF814FB0FB470B504
:10114000F4B00026002500242F48046832E02078FF
:10115000401E9DF8E01188422AD1A1799DF8E20154
:10116000401EC0EBC0020DF2E91000EBC200C078D7
:1011700081421DD1A078401EC0EBC00104F10900DE
:1011800000EBC1000079092810D1D92204F1100127
:101190006846FFF749FAE922214639A8FFF744FAE1
:1011A00039A80FC8FFF7CAFF012505E0012503E0B4
:1011B000D4F8E940002CCAD100BF012D21D1A1787B
:1011C000491EC1EBC10204F1090101EBC201C8785B
:1011D00003F03AFEDD2204F10C016846FFF724FA21
:1011E000E922214639A8FFF71FFA074839A90EC995
:1011F0000068FFF7C9FE0646002074B070BC5DF8B9
:1012000014FB0120F9E700004400002010B5184845
:101210000088401C16490880084600880A2190FB77
:10122000F1F201FB120098B9002011490880114821
:10123000FFF75CFE00F470400F490988884216D120
:1012400001200E4908700C4800880D4908800EE006
:1012500007480088052190FBF1F201FB120030B92C
:101260000448FFF743FE00F470400349088010BDB6
:101270009A000020000C01409C0000208600002005
:101280008800002010B518A0FFF76EF872B64FF472
:101290007040FFF7DBFCF020FFF7D8FC40BF20BF19
:1012A0000221012000F098F800F0F4FA00F038FA7A
:1012B00001F0DAF94FF47040FFF7CEFC30B14FF493
:1012C0007040FFF7C3FC01F0F7F908E0F020FFF7EA
:1012D000C3FC20B1F020FFF7B9FC01F0EDF962B6D4
:1012E00003A0FFF741F810BD536C6565700D0A004F
:1012F00057616B650D0A000010B514480088401C4A
:101300001249088008460088022812DB0020088065
:101310000F48FFF7EBFD00F0F0000E490988884206
:1013200012D10C4800880C49088001200B49087034
:101330000AE006480088012806DB0548FFF7D6FDCD
:1013400000F0F0000349088010BD0000A00000205C
:1013500000080140A2000020800000207E00002044
:1013600000BFFEE700BFFEE770B5002100230F229B
:10137000C47804B3154C246804F4E064C4F5E06454
:10138000210AC1F10403CA40447804FA03F18478C5
:101390001440214309010E4C0678A155047804F04D
:1013A0001F050124AC4005786D11AD0005F1E02565
:1013B000C5F8004109E0047804F01F050124AC40A1
:1013C000044D0678761145F8264070BD0CED00E01E
:1013D00000E400E080E100E010B5024600200C4B84
:1013E000186820F00300104318600A4B1B6843F094
:1013F0000403084C2360012901D130BF00E020BF65
:10140000044B1B6823F00403024C236010BD000052
:101410000070004010ED00E000BFFEE729B1064A71
:1014200052690243044B5A6104E0034A5269824301
:10143000014B5A61704700000010024029B1064A72
:10144000D2690243044BDA6104E0034AD269824361
:10145000014BDA61704700000010024029B1064AD2
:1014600092690243044B9A6104E0034A9269824301
:10147000014B9A617047000000100240F0B5002156
:10148000002200250023002600245B4F7F6807F020
:101490000C0121B1042905D008297ED105E0574F60
:1014A00007607DE0554F07607AE0534F7F6807F48F
:1014B0007012514F7F6807F48035022707EB924284
:1014C000022A00D112220F2A01D10D220126102A50
:1014D00000D10F22112A00D1102265B9484F3F6870
:1014E00007F010071FB1454F574307604FE0454FC6
:1014F000574307604BE0404FFF6A07F48037BFB3A4
:101500003D4FFF6AC7F303177F1CDFF8F0C0BCFB39
:10151000F7F70760384FFF6AC7F303242CB9076851
:1015200007EB87077F08076017E0012C07D10768E2
:1015300007EBC70C0CEB07177F0807600DE00F2CBB
:1015400005D1076807EB8707BF00076005E004F1D6
:10155000020C076807FB0CF70760274FD0F800C0A4
:10156000FF6A07F00F077F1CBCFBF7F707600BE073
:1015700000E012E0204FFF6A07F00F077F1CDFF842
:101580007CC0BCFBF7F70760076857430760012E74
:1015900002D107687F08076002E0184F076000BFAC
:1015A00000BF154F7F6807F0F0010909164F7B5CFB
:1015B0000768DF404760104F7F6807F4E061090A61
:1015C000114F7B5C4768DF4087600B4F7F6807F4F3
:1015D0006051C90A0C4F7B5C4768DF40C760064F0B
:1015E0007F6807F44041890B084F7B5CC768B7FBF5
:1015F000F3F70761F0BD00000010024000127A000E
:101600000038024000093D0030000020400000206A
:101610000549496821F44001034A5160114649686F
:1016200041EA8051516070470010024000BFFEE760
:1016300010B500F001F810BD0CB50020019000902D
:101640002B48006840F480302949086000BF2848D2
:10165000006800F4003000900198401C0190009850
:1016600018B90198B0F5805FF1D12148006800F405
:10167000003010B10120009001E00020009000989F
:10168000012833D11A484068194948600846406823
:1016900048600846406840F48060486008464068FA
:1016A00020F47C1048600846406840F48810486088
:1016B0000846006840F08070086000BF0C48006871
:1016C00000F000700028F9D00948406820F00300BD
:1016D000074948600846406840F00200486000BF83
:1016E0000348406800F00C000828F9D10CBD000048
:1016F00000100240042808D14FF0E021096941F0B0
:1017000004014FF0E022116107E04FF0E021096988
:1017100021F004014FF0E0221161704700BFFEE7A5
:1017200070B500220020002300240021534D6D6875
:1017300005F00C0222B1042A06D0082A74D107E071
:101740004F4D504E35608BE04D4D4E4E356087E02D
:101750004A4D6D6805F47010484D6D6805F480338E
:10176000022505EB9040022800D112200F2801D15C
:101770000D200124102800D10F20112800D11020A5
:1017800073B9414D2D6805F0100525B13C4D454319
:101790003C4E356058E03D4D45433A4E356053E090
:1017A000364DED6A05F48035EDB3344DED6AC5F381
:1017B00003156D1C324EB6FBF5F5324E35602F4DDC
:1017C000ED6AC5F3032131B935462D6805EB850572
:1017D0006D0835601BE0012909D12A4D2D6805EB04
:1017E000C50606EB05156D08264E35600FE00F297E
:1017F00007D1244D2D6805EB8505AD00214E3560E0
:1018000005E0204D2D688E1C75431E4E35601B4D26
:10181000ED6A05F00F056D1C1A4E3668B6FBF5F53E
:10182000184E35600BE000E016E0144DED6A05F04F
:101830000F056D1C124EB6FBF5F5124E3560114DBD
:101840002D6845430F4E3560012C04D10D4D2D6898
:101850006D080C4E356003E0094D0A4E356000BF3F
:1018600000BF064D6D68C5F30315094E725D054D49
:101870002D68D540034E356070BD00000010024059
:1018800000127A00140000200038024000093D00D8
:101890001800002010B51648006840F001001449F7
:1018A00008600846406813490840114948600846E6
:1018B0000068114908400E4908600846006820F495
:1018C000802008600846406820F47F004860084691
:1018D000006820F0A05008604FF47F00886000206E
:1018E000C862FFF7A5FE4FF000600449086010BD14
:1018F000001002400000FFF0FFFFF6FE08ED00E0E0
:1019000010B501210A4800F01CF878B101210848FF
:1019100000F014F8FFF77AFCFFF7EEFC05480078BA
:1019200020B105480078401C0349087010BD000034
:10193000000400409700002098000020CA43028263
:10194000704730B50246002000230024158A05EABE
:101950000103958905EA010413B10CB1012000E0EF
:10196000002030BD10B540F225510F4800F04BF873
:10197000C0B10D4800F036F9C4B20C480C490978E2
:1019800044540B490978481CC11700EB1161091236
:10199000A0EB0121064A1170552C02D10120054906
:1019A000087000BF10BD0000004C0040A8100020CF
:1019B000110000201200002010B540F2255105480A
:1019C00000F021F820B1034800F00CF9024908703A
:1019D00010BD0000004400409600002021B1828923
:1019E00042F40052828104E082894DF6FF731A406E
:1019F000828170470246002013880B400BB1012002
:101A000000E00020704770B502460B46002400211C
:101A100000250020C3F3421503F01F01012606FA3A
:101A200001F1012D02D19689314006E0022D02D14B
:101A3000168A314001E0968A31401C12012606FACE
:101A400004F41688344011B10CB1012000E00020EC
:101A500070BDF0B50346002400260025002018467E
:101A6000C1F3421401F01F06012707FA06F5012C05
:101A700001D10C3004E0022C01D1103000E0143010
:101A80001AB107682F43076002E00768AF43076099
:101A9000F0BD00002DE9F04786B005460E46002453
:101AA000A24600BF00BF00272F462C8A4CF6FF70CD
:101AB0000440F08804432C82AC894EF6F3100440B5
:101AC000B08831890843718908430443AC81AC8AEA
:101AD0004FF6FF400440B0890443AC8201A8FFF7F1
:101AE000CDFC1248874202D1DDF810A001E0DDF8FC
:101AF0000CA00AEBCA0000EB0A1031688900B0FBA9
:101B0000F1F86420B8FBF0F004012009642101FB26
:101B10001089322000EB0910B0FBF1F000F00F004B
:101B200004432C8106B0BDE8F0870000002000408F
:101B300010B586B0044601210846FFF78FFC01214D
:101B4000C804FFF77BFC01210820FFF787FC012078
:101B5000ADF8140003208DF8160018208DF817003A
:101B600005A91D48FFF7CEF80220ADF814000420A7
:101B70008DF8170005A91848FFF7C4F80121174888
:101B8000FFF74CF934208DF8000001208DF801009A
:101B90008DF802008DF803006846FFF7E5FB01941D
:101BA0000020ADF80800ADF80A00ADF80C00ADF863
:101BB00010000C20ADF80E0001A90948FFF76AFFDC
:101BC000012240F225510648FFF743FF0121044856
:101BD000FFF704FF06B010BD000C0140010030808B
:101BE000004C004001468888C0F308007047C1F3EC
:101BF000080282807047000010B54FF088500C49F1
:101C0000C8620846C06A40F04040C8620846406961
:101C100040F400604861C820FEF7F2FF05480078F4
:101C200040F01000034908700520FEF7E9FF10BDE1
:101C3000001002400134024040214FF0A0421173D5
:101C4000442151731049116110495161104991614A
:101C50001049D1610021104A117002214FF0A042B9
:101C600082F832100C4AD21C1170121D1170121D14
:101C70001170002004E00021084A1154411CC8B230
:101C80000828F8DB704700008C3D0020CC3D002088
:101C90000C3E00204C3E0020330000507600002017
:101CA00010B504460CB306204FF0A0410870052083
:101CB000FEF7A6FF00204FF0A0410870FFF7BCFF21
:101CC00007204FF0A04188702920087081204870BB
:101CD000432000F01F02012191404209920002F1CD
:101CE000E022C2F8001100BF15E006204FF0A0412D
:101CF00008700A20FEF784FF00204FF0A041087012
:101D0000432000F01F0201219140034A430942F899
:101D1000231000BF00BF10BD80E100E02DE9F047B7
:101D200004460F4690469946012C7DDB072C7BDC50
:101D30004748005D002878D1012C01D0042C06D141
:101D40004FF0A040057B012C1AD12D1118E0022C78
:101D500001D0032C06D14FF0A040457B032C0FD1BE
:101D60002D110DE0052C01D0062C06D14FF0A0401E
:101D7000857B062C04D12D1102E04FF0A040C57BDD
:101D800005F00400002860D005F0080080B105F0DF
:101D9000010058B1A00000F1A04090F8320000F01E
:101DA000040008B1C02613E0802611E040260FE0B1
:101DB00005F0010058B1A00000F1A04090F83200F9
:101DC00000F0040008B1402602E0002600E00026F2
:101DD0009EB9B9F1000F05D1B9B2A00000F1A04041
:101DE000016115E0A10001F1A041096901F1005074
:101DF00042463946FEF718FC0AE0A10001F1A04175
:101E0000096901F10051881942463946FEF70CFC78
:101E100001200F490855A00000F1A040A0F8308033
:101E2000A00000F1A04001E00DE009E090F83200D0
:101E300020F00300A10001F1A04181F8320004E08C
:101E40000020BDE8F0870020FBE70120F9E7000053
:101E5000760000202DE9F0414FF0A0408579C67949
:101E600005F00200002870D006F0300000286DD088
:101E7000202802D030286AD1C8E006F03F00202890
:101E800006D021284BD0222862D0232876D176E0B4
:101E9000F548008810B90420F4490870F448007827
:101EA00000F06000B8BBF3480078052827D006286A
:101EB00032D1ED480088402801DB402001E0EA48AB
:101EC000008804462246EC480168EC48FEF7ACFB6B
:101ED000E5480088001BE4490880E7480068204482
:101EE000E54908604FF0A0400486E048401E0078B5
:101EF00080F004004FF0A04181F832000DE04FF077
:101F0000A040C07800F08000DD49097808434FF018
:101F1000A041C87001E001E000BF00BF46E0D34827
:101F2000C01C007820F00300801C4FF0A04181F815
:101F30003600084690F8360080F00400CB49C91CF2
:101F400008700020CF49487030E030E330E027E3EC
:101F5000C648C01D007820F00300801C4FF0A0414F
:101F600081F83A00084690F83A0080F00400BF4932
:101F7000C91D08700020C349887017E015E0BB48F0
:101F80000B30007820F00300801C4FF0A04181F856
:101F90003E00084690F83E0080F00400B3490B3143
:101FA00008700020B749C87000E000BF00BFF8E229
:101FB00006F03F0038BB06F04000C0B1AC480078E6
:101FC00000F0600098B1AA48007800F06000202876
:101FD0000DD1A8480078092807D1A8480078AA4957
:101FE00008700020A049088000E000BF00BF9E48A4
:101FF000008838B900204FF0A041088604209B4992
:10200000491E087000E000BF00BFCAE206209749E1
:10201000491E08704FF0A04181F8330097480078BE
:102020009349087095484078924908709348C08851
:102030008D49088091484088944908808F4880885D
:1020400093490880002400278948007800F0600048
:10205000002875D08648007800F06000202870D1F4
:1020600084480078801E0A286CD2DFE800F04160C6
:1020700082828282820506257DE08548008828B913
:102080008248008800128349087014E08048008864
:10209000012805D17D48008800127E4948700AE079
:1020A0007B480088022805D17848008800127949C9
:1020B000887000E0FF275EE07548008820B973480B
:1020C00000887549087012E071480088012804D121
:1020D0006E4800887049487009E06D480088022801
:1020E00004D16A4800886C49887000E0FF2742E00C
:1020F0006748008828B9674800786049087001245B
:1021000014E063480088012805D1624840785B49A3
:10211000087001240AE05E480088022805D15D4865
:10212000807856490870012400E0FF2723E05848D2
:10213000008840B95848007850490870012417E0D9
:102140001AE0F6E115E052480088012805D152480E
:1021500040784A49087001240AE04D480088022866
:1021600005D14D48807845490870012400E0FF27DB
:1021700001E0FF2700BFDCE13E4800780C2871D267
:10218000DFE800F0F6E270F570C90670CEDAF4F31D
:102190003E4800880012032854D004DC012807D0F0
:1021A000022860D109E0212811D022285BD12DE03E
:1021B0003A4831490860047891E039482E4908606E
:1021C00080783749C97800EB012084B287E0304835
:1021D000008828B93248123027490860092414E0E1
:1021E0002B480088012805D12D482B302249086052
:1021F00009240AE026480088022805D128484430EE
:102200001D490860092400E0FF2768E02048008895
:1022100020B92448184908603E2412E01C48008870
:10222000012804D1204814490860342409E01848E2
:102230000088022804D11D480F490860342400E0BA
:10224000FF274CE011480088C0B230B1012831D0DE
:10225000022834D003283CD136E0154806490860EE
:10226000047838E062E138E06A0000203300005072
:102270006500002064000020600000208C3D0020EC
:102280006D000020760000209500002066000020F0
:10229000680000207000002073000020BC5400087B
:1022A000CE540008225500086055000894550008D7
:1022B000D2550008DD48DE49086004780BE0DD48AF
:1022C000DB490860047806E0DB48D94908600478F7
:1022D00001E0FF2700BF00BF01E0FF2700BF00BFF4
:1022E000D6480088A04201DDD4480480D348008845
:1022F000402801DB402001E0D04800880446224607
:10230000CB480168CE48FEF78FF9C94800682044E1
:10231000C74908600CE1CB480088CB49087007E149
:10232000CA480078C6490870C4480088012802DD00
:102330000120C2490880FBE0C2480088C3490870F8
:102340000120C3490870F3E0C248007800F01F0084
:1023500078B9BC480088C0B2012830D1BE480078A6
:1023600020F00100BC49087029E089E07DE027E009
:1023700087E0B848007800F01F0002281ED1B1485D
:102380000088C0B2D8B9B5480088C0B2812804D04E
:10239000822806D083280ED108E00220B0490870B8
:1023A0000BE00220AE49091D087006E00220AC498E
:1023B0000831087001E0FF2700BF00E0FF27B7E009
:1023C000A448007800F01F00A0B99E480088C0B261
:1023D00001280DD1A348C07900F0200030B19E48FB
:1023E000007840F001009C4908703DE0FF273BE089
:1023F000FF2739E09748007800F01F00022832D10B
:1024000090480088C0B260BB94480088C0B2812860
:1024100004D082280CD0832820D114E09048007882
:1024200020F00300C01C4FF0A04181F8360017E0F7
:102430008B48001D007820F00300C01C4FF0A04125
:1024400081F83A000CE086480830007820F003005C
:10245000C01C4FF0A04181F83E0001E0FF2700BF03
:1024600002E0FF2700E0FF2762E0002074490870C7
:1024700072480088012802DD01207049088057E079
:1024800056E000206E49087048707248007800F0ED
:102490001F0058B97048007800F0010010B1022008
:1024A00008703BE000206649087037E06948007812
:1024B00000F01F00022830D168480088C0B281288F
:1024C00009D16748007800F00300032826D10120D5
:1024D0005B49087022E061480088C0B282280AD1B6
:1024E0005F48001D007800F00300032816D101208A
:1024F0005349087012E059480088C0B283280AD1B5
:1025000057480830007800F00300032806D1012066
:102510004B49087002E0FF2700E0FF27474800888A
:10252000022802DD02204549088001E0FF2700BFA4
:1025300000BFFF2F08D107204949091F08704FF03D
:10254000A04181F833002AE04248007800F0800082
:10255000A8B13A480088402801DD402001E0374812
:102560000088044635480088001B344908804FF035
:10257000A040048604203A49091F08700FE02F4844
:10258000008840B900204FF0A0410886042034495B
:10259000091F087003E004203149C91E087000E0DB
:1025A00000BF00BF02204FF0A04188713CE005F061
:1025B000010090B100202549087023490870264980
:1025C0000870234908704FF0A041C870FFF734FB32
:1025D00001204FF0A041887126E005F0040000B30F
:1025E00004204FF0A04188710A20FEF709FB4FF04C
:1025F000A040407900F0040060B11748007840F036
:102600000200154908700846007803280CD1FEF72F
:1026100039FE09E01048007820F002000E490870E9
:1026200002E04FF0A0408571BDE8F081D65500086A
:1026300060000020E4550008F65500086A000020FC
:102640008C3D0020660000206D0000206C00002002
:102650006F000020650000206E0000206800002050
:1026600036000050CE54000810B50F4800680F49DE
:10267000884203D10220FEF7CBFF10E00A48006831
:102680000B49884203D10120FEF7C2FF07E006484C
:1026900000680849884202D10020FEF7B9FF0121F5
:1026A0000803FEF7BBFE10BD14000020004495088F
:1026B00000D8B805006CDC0210B54FF0A04040789F
:1026C00080F004004FF0A04148700820FEF772FA35
:1026D0004FF0A040407880F004004FF0A0414870D7
:1026E0000120FEF767FA10BD2DE9F04106460D46C0
:1026F00017464FF00008002484E0285D092808D11F
:10270000601C285C022804D1201D295C40A0FDF734
:102710002BFE285D09280BD1601C285C042807D1FA
:10272000601D295C46A0FDF71FFE601D285C7075CA
:10273000285D092810D1601C285C21280CD1E01DDF
:10274000295C401C285C41EA002048490870084682
:10275000017847A0FDF708FE285D072850D1601CCE
:10276000285C05284CD1A01C285C00F080000028C3
:1027700027D0A01C285C00F00F0145A0FDF7F4FD58
:10278000A01C285C00F00F024046411C1FFA81F893
:10279000311D0A54707B401C7073201D295C601D24
:1027A000285C41EA0020444908800846008870807F
:1027B000A01D285CB0730846018840A0FDF7D4FD39
:1027C0001EE0A01C285C00F00F0148A0FDF7CCFD26
:1027D000A01C285C00F00F00F073707C401C70742B
:1027E000201D295C601D285C41EA002032490880D8
:1027F0000846008830800846018840A0FDF7B4FDF7
:10280000601C84B2BC42FFF678AFBDE8F0810000E6
:102810000955534248535F416E616C797369735F28
:1028200044657363723A20624E756D496E746572C9
:1028300066616365733A25303278200A0000000033
:102840000955534248535F416E616C797369735FF8
:1028500044657363723A206465766963655F747971
:1028600070653A25303278200A0000004F000020C1
:102870000955534248535F4869645F5265706F72EF
:10288000745F4C656E3A2025303278200A000000D3
:102890000955534248535F416E616C797369735FA8
:1028A00044657363723A20656E6470494E3A253010
:1028B0003278200A000000005000002009555342E1
:1028C00048535F416E616C797369735F44657363EC
:1028D000723A20496E5F656E64706D617873697AD3
:1028E000653A25303278200A00000000656E647079
:1028F0004F55543A25303278200A00004F75745FE6
:10290000656E64706D617873697A653A25303278E6
:10291000200A00002DE9F84F0546894692461C46DC
:10292000DDF828B00020009004F00F0050B15748A7
:10293000007800EB400105F1080000EB410090F841
:10294000018001E04FF0000800BF4FEA8820A9781D
:1029500040EA4100697811B140F2011100E0012123
:1029600008434B4908804A49E5390B980870022012
:10297000C91D087000BF4648DF38007800F001002C
:102980000028F8D004F00F0040F0800040490839DA
:10299000087040F6B83600E0761E36B13C48DE38A6
:1029A000007800F002000028F6D0002038490839ED
:1029B00008703748DE38007800F0020010B9202097
:1029C000BDE8F88F0920B0EB241F0AD1042000EBEA
:1029D000CB002F49491F08702D48C438C0F800901B
:1029E00005E0402040EACB002949891E0870E878BC
:1029F0002749E53908700220C91D087024480838A5
:102A0000047040F6B83603E00120FEF7F9F8761EB0
:102A100036B11F48DE38007800F002000028F3D0FD
:102A200000201B49083908701948DE38007800F08A
:102A30000200F8B11648DD38007800F00F0714489E
:102A4000DD38007800F0400050B10920B0EB241FC1
:102A500006D10F48DC380088AAF800000020AFE754
:102A6000022F01D10020ABE7062F03D0F8B240F0CF
:102A70002000A5E71420FEF7C3F80098401CC0B260
:102A800000906428FFF661AF202099E74E000020F7
:102A9000E83402400146002005E00A78034B1A544E
:102AA000491C421CD0B20828F7D17047A80000206A
:102AB000F8B507460C461E48FFF7ECFF694620466E
:102AC00001F0EEF905460DB12846F8BD1948C08859
:102AD0009DF80010884201DD1720F6E7668814484B
:102AE000FFF7D8FF1348C6806946204601F0D8F9A1
:102AF00005460DB12846E8E760790F49C8750846D4
:102B0000417D0EA0FDF730FC0B48407D092806D121
:102B10000848C2882146384601F006FE05E005480F
:102B2000C28821460448FFF7DFFD0020CDE7000002
:102B30008C540008A80000200820002009095553E3
:102B40004248535F4374726C476574436F6E6669A5
:102B50006744657363723A2055534248535F746803
:102B600069735573624465762E446576696365546E
:102B70007970653D253032780A00000038B5054689
:102B80000820124908701248FFF784FF0F480078A8
:102B90001049C8806946284601F082F904460CB104
:102BA000204638BDE879094908700948FFF772FFE7
:102BB0006946284601F074F904460CB12046F0E756
:102BC00005A0FDF7D1FB0020EBE700004D00002041
:102BD00084540008A80000200955534248535F431D
:102BE00074726C47657444657644657363723A2009
:102BF00052657472696576656420446576696365BB
:102C0000204465736372697074696F6E0A00000016
:102C100070B5054681200B490870062048704FF4B6
:102C2000085048800020888007480078C8800649FE
:102C3000284601F035F904460CB1204670BD00204D
:102C4000FCE70000A80000204F0000203EB505462C
:102C500011A103C9CDE900016846FFF71BFF104829
:102C600000781049C88002A9284601F019F90446E5
:102C70000CB120463EBD28788DF806006846FFF767
:102C800009FF02A9284601F00BF904460CB12046C1
:102C9000F0E70020EEE70000A00600290000020097
:102CA0004D000020A800002010B521200649087022
:102CB0000A200870002048808880C88000210846CB
:102CC00001F0EEF810BD0000A800002010B5044689
:102CD0000448FFF7DFFE044844800021084601F065
:102CE000DFF810BD9C540008A800002070B5044611
:102CF0000A48FFF7CFFE0A4844800021084601F049
:102D0000CFF805460DB1284670BD204600F00AF800
:102D10000520FDF74FFF0020F6E70000945400085F
:102D2000A8000020014908707047000003340240E9
:102D300070B504460D4623200649087001204870EE
:102D40000846458084800020C8800021084601F0A4
:102D5000A7F870BDA80000202DE9F04105460C46FB
:102D60001646601CC1B2284601F060FC074617B148
:102D70003846BDE8F0813A48807800F00100A0B301
:102D80003748007800F00100C0B17320684335492E
:102D900001EB4000801DC4EBC40110F83100022893
:102DA0000ADA0121732068432E4A02EB4000801D9D
:102DB000C4EBC40200F832101820DAE700217320B7
:102DC0006843284A02EB4000801DC4EBC40200F8AF
:102DD000321073206843234A02EB4000801DC4EB8D
:102DE000C40200F832101920C3E7FFE71C4800783E
:102DF00000F0010000B11EB119480078032818D175
:102E000073206843174901EB4000801DC4EBC401E7
:102E100010F8310002280ADA012173206843114AB0
:102E200002EB4000801DC4EBC40200F83210022007
:102E30009FE70021732068430A4A02EB4000801D8F
:102E4000C4EBC40200F8321073206843054A02EB59
:102E50004000801DC4EBC40200F83210012088E756
:102E6000A8040020A81100202DE9F05F054689463E
:102E70001446DDF828A00A20FDF79CFE601CC1B2B4
:102E8000284601F0D3FB064616B13046BDE8F09F58
:102E9000611CC8B2042101F0FDFB06460EB13046AC
:102EA000F4E700BF0A20FDF785FE601CC1B228468A
:102EB00001F0BCFB06460EB13046E7E7FD4800785E
:102EC00000F010000028EDD11E20FDF773FE601CFD
:102ED000C1B2284601F00AFA06460EB13046D5E7DF
:102EE000601CC1B2284601F0A1FB06460EB1304677
:102EF000CCE7F1A0FDF738FAFDA0FDF735FA002682
:102F000006E0EC48815DFBA0FDF72EFA701CC6B20E
:102F1000042EF6D1F9A0FDF727FAE648007800F074
:102F2000010008B91820B1E7E248B0F8008008F0C5
:102F30000100B0B3601CC1B273206843F04A02EBD9
:102F40004000801DC4EBC40200EBC2008170002170
:102F500073206843EA4A02EB4000801DC4EBC402C0
:102F600000EBC200C170012173206843E44A02EB08
:102F70004000801DC4EBC40200F8321008F4007059
:102F800008B1022001E0C8F3802073216943DC4AC4
:102F900002EB4101891DC4EBC40201EBC201487080
:102FA0000BE0FFE7002173206843D54A02EB4000A5
:102FB000801DC4EBC40200F8321073206843D04B6C
:102FC00003EB4000801DC4EBC40310F833207320D2
:102FD0006843CB4B03EB4000801DC4EBC40300EB04
:102FE000C3004178C7A0FDF7BFF90020FFF79AFEA4
:102FF00073206843C24901EB4000801DC4EBC4014B
:1030000000EBC1004078012878D14846FFF7B6FDB3
:1030100006462EB13146C5A0FDF7A6F9304635E784
:1030200001F020FF73216943B54A02EB4101891D7C
:10303000C4EBC40201EBC201C87073216943B04AFA
:1030400002EB4101891DC4EBC40201EBC201C87847
:10305000FFF74CFE064636B1621D3146BAA0FDF7B9
:1030600083F9304612E773216943A54A02EB410117
:10307000891DC4EBC40201EBC2004946FFF718FDED
:1030800006462EB13146B6A0FDF76EF93046FDE694
:10309000BC49C87DFFF71AFE06462EB13146BAA0DC
:1030A000FDF762F93046F1E673206843944901EB7D
:1030B0004000801DC4EBC40100EBC100007903286F
:1030C00004D1FFF7F1FD4846FFF7A2FD73206843E6
:1030D0008B4901EB4000801DC4EBC40100EBC10033
:1030E0000079092831D14846FFF7B0FD064636B1D0
:1030F0003146ABA0FDF738F93046C7E639E0002786
:103100000FE0791CC8B2082101F0C4FA06463A461D
:103110003146A8A0FDF728F90EB13046B6E6781C76
:1031200087B2042FEDD173206843754901EB40004D
:10313000801DC4EBC40100EBC100C178681C732280
:1031400050436F4A02EB4000C17002217320684374
:103150006B4A02EB4000801DC4EBC40200F8321041
:1031600054489B4908609B489949403108600020B9
:103170008CE699A0FDF7F8F84FF49670FDF71AFD6C
:10318000732169435E4A02EB4101891DC4EBC4020D
:1031900001EBC2005246494601F090FA064631461C
:1031A0009AA0FDF7E1F801F05DFE834673216943C3
:1031B000534A02EB4101891DC4EBC40201EBC2007A
:1031C00053464A46594601F0F3FB064631469AA05B
:1031D000FDF7CAF873216943494A02EB4101891D91
:1031E000C4EBC40201EBC20052464946FDF784FE1F
:1031F0000646314699A0FDF7B7F873226A43404B63
:1032000003EB4202921DC4EBC40302EBC3005D4A10
:10321000D17D53464A4601F00BFC064631469AA042
:10322000FDF7A2F873206843354901EB4000801D8B
:10323000C4EBC40100EBC1000079032825D1732140
:1032400069432F4A02EB4101891DC4EBC40201EB23
:10325000C2005246494601F0CDFB0646314695A0D4
:10326000FDF782F873216943254A02EB4101891D6C
:10327000C4EBC40201EBC2005246494601F0B2F869
:103280000646314694A0FDF76FF80221732068438B
:103290001B4A02EB4000801DC4EBC40200F8321050
:1032A00004484B4908604B484949403108600020B8
:1032B000ECE50000A80400200955534248535F483C
:1032C0005542486F7374456E756D3A20446973704A
:1032D0006C617920506F727420537461747573201F
:1032E0004669656C642042697473200A000000001E
:1032F0000900000025303278200000000A0000009C
:10330000A81100200955534248535F485542486F61
:103310007374456E756D3A2053706565643D253054
:1033200032782C20253032780A000000676574203E
:103330006465766963652064657363726970746F30
:10334000723A253032780A007365742061646472C1
:103350006573733A253032782C25640A000000002A
:1033600067657420636F6E66696775726174696FF3
:103370006E2064657363726970746F723A253032BF
:10338000780A00000820002073657420636F6E6661
:10339000696775726174696F6E3A253032780A0018
:1033A0006765745F6875625F646573633A25303280
:1033B000780A00006875625F706F7765725F73747A
:1033C000617475733D253032782C25640A00000045
:1033D00024340240A80000200955534248535F4856
:1033E0005542486F7374456E756D3A2066756C6C06
:1033F0002026206C6F7720737065656420656D757D
:103400006C6174696F6E200A000000000955534218
:1034100048535F485542486F7374456E756D3A2046
:103420006875625F6465765F7374617475733D255A
:103430003032780A000000000955534248535F4873
:103440005542486F7374456E756D3A207365745FAD
:10345000616464723D253032780A00000955534298
:1034600048535F485542486F7374456E756D3A20F6
:103470006875625F6366675F7374617475733D2519
:103480003032780A000000000955534248535F4823
:103490005542486F7374456E756D3A206875625F6A
:1034A0007365746366675F7374617475733D25300B
:1034B00032780A000955534248535F485542486FD5
:1034C0007374456E756D3A207365745F69646C65DD
:1034D0003D253032780A00000955534248535F4871
:1034E0005542486F7374456E756D3A206765745F19
:1034F0007265706F72743D253032780A00000000EA
:103500002DE9F04FADF56B7D05468B4692460020C8
:10351000EA9000260024FBE3FC48FD490860FD48D2
:10352000FB49403108608DF8B8528DF8B9A2601C93
:10353000C0B28DF8BA0273206843F74A02EB40012B
:10354000E6220DF2BB20FDF76FF8AEA9F348006844
:10355000FDF7BCFD074667B973216943EE4A02EBEC
:103560004100E6220DF2BB21FDF75EF80120EA9052
:103570000CE073216943E84A02EB4101891DC4EB69
:10358000C40201EBC2003821FDF7C5F85846FFF729
:10359000C9FB21462846EA9AFFF7DEFB7320684301
:1035A000DD4901EB4000801DC4EBC40100EBC1000C
:1035B000C079002873D073206843D74901EB4000DD
:1035C000801DC4EBC40110F83100012868D1D4A0DB
:1035D000FCF7CAFE53462246DF492846CDF800B024
:1035E000FFF742FC0746DDA0FCF7BEFEE9A0FCF7B2
:1035F000BBFE002F6DD1022173206843C64A02EB47
:103600004000801DC4EBC40200F832108DF8B8529F
:103610008DF8B9A2601CC0B28DF8BA02732068435D
:10362000BD4A02EB4001E6220DF2BB20FCF7FCFF95
:10363000DD22B1A96846FDF73CF8B848AEA90EC92D
:103640000068FDF7F4FC0746002F28D1732068437B
:10365000B14901EB4000801DC4EBC40100EBC10087
:10366000C07873216943AC4A02EB4101891DC4EB68
:10367000C40211F83210631C5246CDE900102946ED
:10368000CEA0FCF771FEA54806681FE0DBA0FCF7A2
:103690006BFE3178E5A0FCF767FE717801E0C6E0CB
:1036A00023E0EAA0FCF760FEB178F2A0FCF75CFE34
:1036B000B078401EC0EBC00206F1090000EBC2006A
:1036C0000179F648FCF750FED6F8E960002EDDD10E
:1036D000ADE00021732068438F4A02EB4000801D5B
:1036E000C4EBC40200F83210A1E0732068438A4999
:1036F00001EB4000801DC4EBC40110F8310000282C
:103700007BD18DF8B8528DF8B9A2601CC0B28DF88B
:10371000BA0273206843804A02EB4001E6220DF2B0
:10372000BB20FCF781FFC4EBC4010DF2C12000EB0C
:10373000C1000079092808D1D922B2A96846FCF74E
:10374000B8FFAEA80FC8FDF7E4FCDD22B1A96846BA
:10375000FCF7AFFF7148AEA90EC90068FDF714FC75
:103760000746002F34D1631C52462946CCA0FCF7F3
:10377000FBFD73216943684A02EB4101891DC4EBDB
:10378000C40201EBC201C87801F05EFB6348066821
:103790001CE0CEA0FCF7E8FD3178A4A0FCF7E4FD26
:1037A0007178AAA0FCF7E0FDB178B2A0FCF7DCFDCF
:1037B000B078401EC0EBC00206F1090000EBC20069
:1037C0000179B648FCF7D0FDD6F8E960002EE0D1CB
:1037D000601CC1B2284600F089FD07467321694389
:1037E0004D4A02EB4101891DC4EBC40201EBC2004A
:1037F0003821FCF790FF611C00E003E0BDA0FCF75E
:10380000B3FD14E0601CC1B2284600F06FFD07460E
:1038100027B138460DF56B7DBDE8F08F601CC1B255
:10382000284600F003FF07460FB13846F2E7732041
:103830006843394901EB4000801DC4EBC40110F816
:10384000310002285FD173206843334901EB400007
:10385000801DC4EBC40100EBC1000079032853D1E3
:103860004FF0000816E2732068432B4901EB40003B
:10387000801DC4EBC40100EBC100083008EB480117
:1038800010F8110000F0800000283ED0732068433B
:10389000214901EB4000801DC4EBC40100EBC100D5
:1038A000083008EB480100EB4100801C732169439C
:1038B000194A02EB4101891DC4EBC40201EBC201AC
:1038C000083108EB480211F8121041F09001CDE9DF
:1038D000010B0091732169430F4A02EB4101891DDD
:1038E000C4EBC40201EBC200E9AB1B4A414601F044
:1038F000C1F80746002F08D173206843064901EB41
:103900004000801D08E104E2D3E1BFE1A8040020EB
:1039100024340240A8000020A81100204400002008
:10392000092D2D2055534248535F4855425F507230
:103930006F636573733A20456E746572696E6720B4
:1039400055534248535F485542486F7374456E75EE
:103950006D202D2D200D0A00A0200020092D2D20E6
:1039600055534248535F4855425F50726F636573C9
:10397000733A2045786974696E67205553424853FD
:103980005F485542486F7374456E756D202D2D202C
:103990000D0A00000955534248535F4855425F5095
:1039A000726F636573733A20456E756D207375632E
:1039B0006365737366756C0D0A00000023536176AE
:1039C000653A2064657074682D25782C75706C6577
:1039D00076656C706F72742D25782C706F72742DF3
:1039E00025782C5374617475732D25782C68756255
:1039F000616464722D2578230A0000002F2A2A2A88
:103A00002A2A2A2A2D2D2D2D2D2D2D2D2D2D2D2DF2
:103A10002D2D2D2D2D2D2D2D2D2D2D2D2D2D2D2DD6
:103A20002D2D2D2D2D2D2F0A000000007072696E96
:103A3000746875622E4855425F53617665446174BF
:103A4000612E44657074683D25780A007072696E55
:103A5000746875622E4855425F536176654461749F
:103A6000612E55704C6576656C506F72743D25788B
:103A70000A0000007072696E746875622E485542C3
:103A80005F53617665446174612E43757272656E31
:103A900074506F72743D25780A0000004856000883
:103AA0002344656C6574653A2064657074682D25DF
:103AB000782C75706C6576656C706F72742D2578D6
:103AC0002C706F72742D2578230A00002F2A2A2A61
:103AD0002A2A2A2A2A2A2A2A2A2A2A2A2A2A2A2A46
:103AE0002A2A2A2A2A2A2A2A2A2A2A2A2A2A2A2F31
:103AF0000A0000006875625F6465766963655F64EB
:103B00006973636F6E6E6563745F706F72743D2569
:103B10003032780D0A000000C4EBC40100EBC10094
:103B2000083008EB480100EB4100807880F001018B
:103B3000732068439D4A02EB4000801DC4EBC40221
:103B400000EBC200083008EB480200EB4200817035
:103B500073206843954A02EB4000801DC4EBC40209
:103B600000EBC200417992A0FCF7FEFB7320684392
:103B70008E4901EB4000801DC4EBC40100EBC10085
:103B80004079022822D190A0FCF7EEFBB9460FE065
:103B9000964810F80900964901F80900934810F872
:103BA000091094A0FCF7E0FB09F101001FFA80F96D
:103BB000BDF8A4038145EBD1012304228C490220E6
:103BC000FEF7ACF88DA0FCF7CFFB2EE07320684326
:103BD000764901EB4000801DC4EBC40100EBC1003D
:103BE000407910BB87A0FCF7BFFB4FF000090FE046
:103BF0007E4810F809008D4901F809007B4810F84B
:103C000009107CA0FCF7B0FB09F101001FFA80F954
:103C1000BDF8A4038145EBD101230822834918464E
:103C2000FEF77CF875A0FCF79FFBEC22AEA973A809
:103C3000FCF73FFD732068435C4901EB4000801DA9
:103C4000C4EBC40100EBC100083008EB480100EBF5
:103C500041008178C4EBC4020DF2D51000EBC20024
:103C6000083008EB480200EB42008170E92273A99A
:103C700038A8FCF71EFDDD22B1A96846FCF719FD46
:103C80006B48AEA90EC90068FDF7F7F908F101000D
:103C900000F0FF0873206843444901EB4000801D99
:103CA000C4EBC40100EBC100807940457FF4DBAD7B
:103CB0002FE0732068433D4901EB4000801DC4EBB9
:103CC000C40100EBC1000079092822D159480078CD
:103CD000401C5849087058A0FCF746FB7320684305
:103CE000324B03EB4000801DC4EBC40300EBC30068
:103CF000C178601CC2B24F480078FFF701FC07464C
:103D00004C480078401E4B49087017B1384681E591
:103D100004E00220FCF74EFF601CC4B2042C7FF4C8
:103D2000FBAB4E48007800F00200D8BB4CA0FCF77B
:103D30001BFB00242DE00021732068431B4A02EB8B
:103D40004000801DC4EBC40200F8321073206843A9
:103D5000164A02EB4000801DC4EBC40200EBC20017
:103D6000C17073206843114A02EB4000801DC4EB10
:103D7000C40200EBC2004170732068430B4A02EB9F
:103D80004000801DC4EBC40200EBC2000171601C46
:103D9000C4B2042CCFD14FF4E6610448FCF7BBFC5D
:103DA000162037E5FFE7002034E50000A8110020C9
:103DB00020446576696365206964656E7469666927
:103DC00065723A202578200050726F6365737369BD
:103DD0006E67206D6F757365206170706C696361CB
:103DE00074696F6E732E2E2E00000000A02000203C
:103DF000520000202530327820000000202D2D2098
:103E00000A00000050726F63657373696E67206B00
:103E10006579626F617264206170706C696361744E
:103E2000696F6E732E2E2E0A0000000056000020CF
:103E3000440000205E00002055534248535F48551F
:103E4000425F50726F636573733A20487562204514
:103E50006E756D65726174696F6E0A000934024097
:103E600055534248535F4855425F50726F636573C4
:103E7000733A204465746563742055534220485555
:103E800042204465617474616368202D20496E6925
:103E90007469616C697A6174696F6E200A00000050
:103EA0002DE9F05F074689464FF00108BB464C46B6
:103EB0000CB1002020706420FCF7A2FE08205749B6
:103EC0000880574A0021D02000F010FF064616B1A6
:103ED0003046BDE8F09F5348C588002D79D0BBF12E
:103EE000000F76D0007800F08000002840D038E045
:103EF0004D48007D012802D06420FCF781FE207827
:103F000038444649C03908604FEAC860010E44F69B
:103F10002062902000F0EAFE06460EB13046D8E757
:103F200088F001083D48D8380088A84203DA3B48A9
:103F3000D838008800E028468246A5EB0A0085B202
:103F400014B12078504420703448D838008838B1F3
:103F50003248D838008835490978491E084000B1F0
:103F600001E0002DC4D100BF00202C49088030E0C2
:103F70002DE02D48007D012802D06420FCF740FE92
:103F800020783844254980390860284800788542DF
:103F900002DB2648007800E02846204908804FEAE6
:103FA000C860010E44F62062102000F09FFE064615
:103FB0000EB130468DE788F0010818480088281AAD
:103FC00085B224B120781549098808442070002D55
:103FD000CFD11548007D012802D06420FCF710FEE7
:103FE0000E49098809B1902100E01021084644F6E5
:103FF0002062082100F07AFE06460EB1304668E7DE
:104000000648008808B9002063E70448D8380088CB
:1040100008B900205DE717205BE70000E4340240A8
:10402000400D0300A8000020082000204D000020C3
:104030002DE9F04106460F463AA0FCF795F900F04D
:104040002BFE0020FEF76EFE0A20FCF7B3FD38467B
:10405000FEF794FD044634B121463DA0FCF784F9F7
:104060002046BDE8F0814648817873207043454A78
:1040700002EB4000C17042498878FEF737FE0446E3
:104080002CB1214640A0FCF76FF92046E9E73946FC
:104090000020FEF70DFD04462CB1214643A0FCF79D
:1040A00063F92046DDE74E49C87DFEF70FFE044662
:1040B0002CB121464BA0FCF757F92046D1E74848E0
:1040C000407D032805D1FEF7EFFD3846FEF7A0FD41
:1040D00022E04348407D09281ED13846FEF7B6FD50
:1040E00004462CB121464AA0FCF73EF92046B8E729
:1040F00000250FE0691CC8B2082100F0CBFA044685
:104100002A4621464BA0FCF72FF90CB12046A8E720
:10411000681CC5B2042DEDD151A0FCF725F9002093
:104120009FE700000955534248535F486F73744539
:104130006E756D3A202D2D205374617274206F6658
:104140002046756E6374696F6E202D2D0A00000085
:104150000955534248535F486F7374456E756D3A05
:1041600020676574206465766963652064657363A0
:10417000726970746F723A20253032780A0000003C
:1041800094540008A81100200955534248535F4831
:104190006F7374456E756D3A207365742061646445
:1041A000726573733A253032780A0000095553421C
:1041B00048535F486F7374456E756D3A2067657438
:1041C00020636F6E66696775726174696F6E2064D3
:1041D000657363726970746F723A253032780A00C1
:1041E000082000200955534248535F486F737445B7
:1041F0006E756D3A2073657420636F6E66696775BE
:10420000726174696F6E3A253032780A00000000DE
:104210000955534248535F486F7374456E756D3A44
:10422000206765745F6875625F646573633A253003
:1042300032780A000955534248535F486F737445FA
:104240006E756D3A206875625F706F7765725F7327
:1042500074617475733D253032782C25640A000032
:104260000955534248535F486F7374456E756D3AF4
:10427000202D2D20456E64206F662046756E637478
:10428000696F6E202D2D0A0010B50446012C20D137
:10429000FDF7B2FCA920114908709020491C087054
:1042A0000F480E491031086000120C49A0310880F7
:1042B0000C480A49243108600B48084964310860F9
:1042C0000648801C007840F008000449891C0870EA
:1042D00002E006200149087010BD000000340240D1
:1042E00008000400A8040020A800002070B50646BD
:1042F0000C46002573207043394901EB4000801DB6
:10430000611EC1EBC10100EBC100C07900F00100EA
:1043100038B110212046FEF70BFD05460DB92846A1
:1043200070BD732070432E4901EB4000801D611E5B
:10433000C1EBC10100EBC100C07900F0020038B14F
:1043400011212046FEF7F4FC05460DB92846E7E7A3
:1043500073207043224901EB4000801D611EC1EBB8
:10436000C10100EBC100C07900F0040038B1122196
:104370002046FEF7DDFC05460DB92846D0E7732040
:104380007043174901EB4000801D611EC1EBC10164
:1043900000EBC100C07900F0080038B113212046BD
:1043A000FEF7C6FC05460DB92846B9E773207043F1
:1043B0000B4901EB4000801D611EC1EBC10100EB08
:1043C000C100C07900F0100038B114212046FEF77A
:1043D000AFFC05460DB92846A2E72846A0E7000035
:1043E000A8110020F8B506460F4614468120104952
:1043F0000870062048704FF40850488001208880DB
:104400000C480078C88023466A463946304600F09A
:1044100013F805460DB12846F8BD0548C088BDF81B
:104420000010884201DD1720F6E72846F4E7000077
:10443000A80000204F0000202DE9FF4F83B09246D6
:104440001D46DDF8109057460FB100203880082037
:1044500002900020D02302AA7249CDE900050398FA
:1044600000F05EFB04461CB1204607B0BDE8F08FAB
:104470000020D02302460146CDE900050398FEF74F
:1044800049FA04460CB12046EFE76648B0F80680CA
:104490000126B8F1000F48D0B9F1000FFBD0007829
:1044A00000F08000002841D03AE0C820FCF7A8FBCB
:1044B000902302AA4946CDE90065039800F030FB3D
:1044C00004460CB12046D0E7902302AA4946CDE924
:1044D00000650398FEF71EFA04462A2C00D11FE05F
:1044E0000CB12046C1E786F00106BDF80800A8EB34
:1044F00000001FFA80F8BDF80800814427B1388811
:10450000BDF8081008443880BDF8080030B14648AE
:104510000078401EBDF80810084000B103E000BF5D
:10452000B8F1000FC1D100BF00263AE035E03E48A7
:104530000078804502DB3C48007800E0404602906D
:10454000102302AA4946CDE90065039800F0E8FA75
:1045500004460CB1204688E7102302AA4946CDE95B
:1045600000650398FEF7D6F904462A2C00D114E022
:104570000CB1204679E786F00106BDF80800A8EBEB
:1045800000001FFA80F8BDF80800814427B1388880
:10459000BDF808100844388000BFB8F1000FC6D13C
:1045A0000126C820FCF72CFB00200290834633E054
:1045B0000120CDE900050EB1092000E00120002115
:1045C00041EA001302AA4946039800F0A9FA0446FA
:1045D0000CB1204649E70120CDE900050EB10920C4
:1045E00000E00120002141EA001302AA4946039895
:1045F000FEF790F904462A2C00D109E00CB12046C0
:1046000033E7BDF8080008B117202EE700202CE79B
:104610000BF1010080B28346BBF1640FC8D100BF2B
:1046200023E70000A80000204D000020F8B5054653
:104630000C46A320144908700020487048800846A2
:1046400084800420C88069461048FFF729FC06468C
:104650000EB13046F8BD9DF80000042801DA17209D
:10466000F8E70A488778C07847EA0027732068434C
:10467000074901EB4000801D611EC1EBC10100EB49
:10468000C100C7710020E5E7A8000020A8040020B1
:10469000A811002070B504460D4623200649087075
:1046A000032048700846458084800020C88000218F
:1046B0000846FFF7F5FB70BDA8000020F8B50646D8
:1046C0000C46154680200E490870062048704FF4AD
:1046D00080704880002088801220C8802B466A465F
:1046E00021463046FFF7A8FE0746E07905490870E5
:1046F0000846017804A0FBF737FE3846F8BD0000F5
:10470000A80000204D000020090955534248535F7E
:10471000557362446576456E64703053697A653DC1
:10472000253032780A0000002DE9F04106460D469A
:10473000904600270024EFE0285D092808D1601C7E
:10474000285C022804D1201D295C76A0FBF70CFE12
:10475000285D09280ED1601C285C04280AD1601D40
:10476000295C76A0FBF700FE601D285C3071E01D1F
:10477000285C7071285D092810D1601C285C2128F4
:104780000CD1E01D295C401C285C41EA00207049E6
:104790000870084601786FA0FBF7E6FD285D072842
:1047A00063D1601C285C0528FAD1A01C285C00F0AD
:1047B000800000285AD0A01C285C00F00F016DA0DA
:1047C000FBF7D2FDA01C295C07EB470206F10800AD
:1047D00000F81210E01C295C07EB470206F1080004
:1047E00000EB42004170601D285C00F01800C0B171
:1047F0007078012815D1201D295C601D285C00F00F
:10480000070041EA00205F490880601D285CC0F372
:10481000C10107EB470206F1080000EB4200C1703E
:104820000FE0201D295C601D285C41EA00205549ED
:104830000880002107EB470206F1080000EB420068
:10484000C1705048018807EB470206F1080000EBF1
:1048500042008180002107EB470206F1080000EBCF
:1048600042008170781CC7B2B77153E0A01C285C6D
:1048700000F00F0144A0FBF777FD201D295C601DAF
:10488000285C41EA00203F490880A01C295C07EB16
:10489000470206F1080000F81210E01C295C07EB43
:1048A000470206F1080000EB42004170601D285CE1
:1048B00000F0180068B1707801280AD1201D295C29
:1048C000601D285C00F0070041EA00202D490880A7
:1048D00007E0201D295C601D285C41EA0020294971
:1048E00008802848018807EB470206F1080000EB22
:1048F00042008180002107EB470206F1080000EB2F
:1049000042008170781CC7B2B7711E48018822A08E
:10491000FBF72AFD601C84B24445FFF60DAFBDE8ED
:10492000F081000009624E756D496E7465726661B2
:104930006365733A25303278200A00000964657691
:104940006963655F747970653A25303278200A00B2
:104950004F0000200955534248535F4869645F5235
:1049600065706F72745F4C656E3A25303278200A3C
:104970000000000009656E6470494E3A25303278B7
:10498000200A00005000002009656E64704F5554E5
:104990003A25303278200A00094F75745F656E64DD
:1049A000706D617873697A653A25303278200A0033
:1049B0002DE9F04105460C461646984600200C4964
:1049C0000870052048700846448000208880C88010
:1049D0004346002231462846FFF72EFD07461FB901
:1049E0002046FEF79FF9EC703846BDE8F0810000E4
:1049F000A80000202DE9F04105460E46144621206E
:104A00000A4908700A204870002048808880C880C1
:104A10002346002231462846FFF70EFD074617B110
:104A20000120BDE8F0810020FBE70000A800002085
:104A30002DE9F04106460C4615461F4600200C495C
:104A40000870092048700846448000208880C8808B
:104A50003B46002229463046FFF7EEFC8046B8F17F
:104A6000000F02D00120BDE8F0810020FBE700002C
:104A7000A80000202DE9FE4F05468A4616461F462F
:104A8000DDE90D9BDDF830806878012819D1E878E0
:104A9000FEF748F92048066099F80020D206110E6A
:104AA00008F00F0242F09000002200F01FF90446C7
:104AB00014B12046BDE8FE8F1748183800883880AA
:104AC00028E0164880F800A099F80000CDE9000B16
:104AD00008F00F0040F090033A463146284600F0B7
:104AE0001FF804460CB12046E4E799F80000CDE930
:104AF000000B08F00F0040F090033A46314628467C
:104B0000FDF708FF04460298401C80B202900CB1E9
:104B10002046CFE72046CDE7243402404E00002057
:104B20002DE9F05F0546894692461E46DDF828B01D
:104B300006F00F0050B15648007800EB400105F137
:104B4000080000EB410090F8018001E04FF0000800
:104B50004FEA8820A97840EA4100697811B14FF402
:104B6000807100E0002108434A4908804949E5393D
:104B70000B9808700220C91D08704FF4FA740AE0FF
:104B80004448E43800884713012F00D105E0022093
:104B9000FCF736F8641E002CF2D100BF14B92020B7
:104BA000BDE8F09F00BF3B48DF38007800F001000F
:104BB0000028F8D006F00F0040F080003549083991
:104BC000087040F6B83400E0641E34B13148DE3875
:104BD000007800F002000028F6D000202D490839A6
:104BE00008702C48DE38007800F0020008B9202058
:104BF000D6E70920B0EB261F0ED04FEACB60000E9F
:104C00002449891E087023488438C0F80090BAF8F7
:104C10000000891E088006E0402040EACB00001D0D
:104C20001C49491F0870E8781A49E5390870194885
:104C3000083806700220C91D087040F6B83403E039
:104C40000120FBF7DDFF641E34B11248DE38007826
:104C500000F002000028F3D000200E490839087047
:104C60000C48DE38007800F0020070B10948DD38E9
:104C7000007800F00F07022F01D1002090E7B8F173
:104C8000030F02D10FB900208AE7202088E7000037
:104C90004E000020E834024010B51248007840F081
:104CA0000100104908700F20FBF784FF0D480078C1
:104CB00020F001000B49087000BF0A48007800F09E
:104CC00040000028F9D00748007840F080000549EE
:104CD0000870C81D007800F00300012801D10249C6
:104CE000087510BD01340240082000202DE9F0476E
:104CF000054688461646534880F80080C01C80F858
:104D000000804FF0000900BF4E48C01E0570022011
:104D10004C49D939087040F6B83A04E00120FBF755
:104D20006FFFAAF1010ABAF1000F06D04548D93841
:104D3000007800F002000028F0D000204149C91E90
:104D400008704048D938007800F0020010B9FE2001
:104D5000BDE8F0873B48D938077807F00100B8B1C3
:104D600001203849D9390870C820FBF749FF354878
:104D7000DA38007800F0020040B13248E2380078BA
:104D800000F08000002850D01520E1E71620DFE772
:104D900007F00200002844D02A48D838007800F0F4
:104DA0000F040920B0EB251F07D12648D83800781A
:104DB00000F0400038B10020CAE7022C01D0062CD8
:104DC00001D10020C4E70E2C02D144F02000BFE73F
:104DD0000A2C0DD116B944F02000B9E74FF6FF7048
:104DE000864200D2761EA9F1010000F0FF091CE006
:104DF0002811012804D0092807D00D280ED100BFA2
:104E000014B144F02000A3E70AE0032C05D00B2CDA
:104E100003D014B144F020009AE701E0FE2097E7A8
:104E200003E03F200749D93908700F20FBF7E8FE5F
:104E300009F10100C0B281460328FFF665AF2020CA
:104E400086E70000E334024001460548405C012843
:104E500003D10020024A505470470120FCE70000B3
:104E6000202000200021092109E00748405C20B9EA
:104E70000120054A505408467047481CC1B27F299A
:104E8000F3DBFF20F8E70000202000201CB5002005
:104E9000009001904FF48020009004208DF80400D1
:104EA00008208DF8050001208DF806006846FBF704
:104EB000DFFE1CBD00BFFEE730380A2801D201200A
:104EC000704700207047000070B504460D4600BFD3
:104ED00040210548FCF78EFD0028F9D0E1B20248D8
:104EE000FCF785FE204670BD004C004010B5024620
:104EF000392A02DCA2F1300002E022F0200037382B
:104F0000C3B2392902DCA1F1300002E021F0200017
:104F10003738C4B244EA0310C0B210BD94B000BF29
:104F200000BF0024002501210820FCF797FA4FF468
:104F30000040ADF84C0028208DF84F0003208DF87C
:104F40004E0013A9AD48FBF7DDFE00BF00BFFBF725
:104F50000FFE4FF4E130FCF7EBFDA9A0FBF704FADC
:104F6000B5A0FBF701FAC3480168C3A0FBF7FCF941
:104F70000120FFF789F91F21C548FBF7CCFBFDF79E
:104F800073FB0520FBF716FE0120FCF789FEFFF7F7
:104F90007DFFFCF738F8BF490860012240F2255137
:104FA000BD48FCF756FD342000F01F02012191405E
:104FB0004209920002F1E022C2F8001100BF1CE198
:104FC000B648007801287DD1B54800780128F6D18F
:104FD000B4480078AA2876D1B24EF61CF01E40786C
:104FE00001281ED1306803907068049000208DF86D
:104FF0001400042202A903A800F0DAF99DF80800C1
:10500000A94908709DF8090048709DF80A00887049
:105010009DF80B00C870012304220220FCF77EFEDD
:1050200065E0A048407804281ED13068039070687D
:10503000049000208DF81400042202A903A800F0B7
:10504000B7F99DF80800984908709DF80900487064
:105050009DF80A0088709DF80B00C8700123042297
:105060000320FCF75BFE42E08E48407802283BD1EB
:105070001022314603A8FBF7D7FA00208DF81C0058
:10508000082201A903A800F093F99DF804008749BC
:1050900008709DF8050048709DF8060088709DF81E
:1050A0000700C8709DF8080008719DF80900487154
:1050B0009DF80A0088719DF80B00C8710123082231
:1050C000184601E021E013E0FCF728FE0A20FBF778
:1050D00071FD7648002101604160012308220146EC
:1050E0001846FCF71BFE02E071A0FBF73DF900BF7C
:1050F00000206B490870794908706A4978A0FBF76D
:1051000033F968480021017077E07648007800F0B4
:105110000100002860D0012072490870481E007804
:1051200000F0020000282DD06FA0FBF71DF94FF40E
:10513000E6617848FBF7EFFAC820FBF73BFD7649BC
:105140000020FEF775FF0746C7B974A0FBF70CF9FE
:105150007A48407D032807D0092808D100207849E3
:10516000087044F0010408E044F0020405E07348CC
:10517000417D74A0FBF7F8F800BF2DE07AA0FBF7A3
:10518000F3F829E07FA0FBF7EFF824F0030441488F
:105190000068D0F8E95013E0A978491EC1EBC102BC
:1051A00005F1090101EBC201C878FFF74DFE074682
:1051B00038480068FBF7B1F836480560D5F8E95083
:1051C000002DE9D10020FFF75FF80120FFF75CF820
:1051D00018215A48FBF79FFA04F0010068B124F047
:1051E00002044C48C178002255480078FEF788F93F
:1051F0000746162F01D124F00104E1E60008014022
:105200002F2A2A2A2A2A2A2A2A2A2A2A2A2A2A2AF9
:105210002A2A2A2A2A2A2A2A2A2A2A2A2A2A2A2AEE
:105220002A2A2A2A2A2A2A2A2A2A2A2A2A2A2A2ADE
:105230002A2A2A2F0A0000004D61696E3A20507216
:105240006F6772616D204E616D65202D2055534250
:1052500020484F5354203C2D3E20446576696365B9
:1052600020436F6D626F2054657374696E67200D03
:105270000A000000140000204D61696E3A20537945
:105280007374656D436C6B3A25640D0A0000000071
:10529000372D002044000020004C0040000000207A
:1052A00012000020A81000200100002009000020AA
:1052B0004572726F723A207472616E736665722005
:1052C0006E656974686572206D6F757365206E6FA9
:1052D00072206B6579626F6172640A0011000020B0
:1052E000257300000A3402404D61696E3A20506F08
:1052F000727420537461747573204368616E6765BE
:105300003A20446576696365204174746163686519
:10531000640A0000A8110020A80400204D61696EF5
:105320003A2048756220456E756D65726174696FCB
:105330006E20537563636573730A000008200020B4
:105340005E0000204D61696E3A20556E6B6E6F777E
:105350006E204465766963652054797065203078E5
:10536000253032580A0000004D61696E3A20456EC2
:10537000756D65726174696F6E206572726F720A05
:10538000000000004D61696E3A20506F7274205326
:105390007461747573204368616E67653A20446573
:1053A000766963652044657461636865640A00001A
:1053B0002DE9F04705460E4617464FF00008002439
:1053C00026E000E0641C285D2028FBD0FAF76EFF81
:1053D0000068295D10F8019089EA890000F08000DA
:1053E00058B1FAF763FF0168601C285C11F800905F
:1053F00089EA890000F0800000B90DE0621CA95C18
:10540000285DFFF773FD414608F101087054A41CA4
:10541000285D08B1B845D4DB00BFBDE8F0870000C7
:1054200010B500290AD00878002807D0054878442C
:10543000FBF7D8FA002801D0002010BD02487844BC
:1054400010BD0000960200008E02000080060001E0
:105450000000120080060002000004008006000325
:10546000090404000005000000000000000900001D
:10547000000000000201000000000000010B00001D
:1054800000000000800600010000120080060002FB
:1054900000000400000502000000000000090000F8
:1054A00000000000010B000000000000010B0000E4
:1054B00000000000020100000000000012010002D4
:1054C00000000040861A00FE0001010203010902EB
:1054D0005400030100A0320904000001030101008F
:1054E000092111010001223E000705810308000A7D
:1054F0000904010001030102000921100100012239
:1055000034000705820308000109040200010301B9
:10551000020009211001000122340007058303085D
:10552000000105010906A101050719E029E7150099
:105530002501750195088102950175088101950382
:10554000750105081901290391029505750191015D
:105550009506750826FF000507190029918100C0EE
:1055600005010902A1010901A10005091901290389
:1055700015002501750195038102750595018101CD
:1055800005010930093109381581257F7508950312
:105590008106C0C005010902A1010901A100050998
:1055A000190129031500250175019503810275056F
:1055B0009501810105010930093116018026FF7F1F
:1055C000751095028102C0C00A060002000000406A
:1055D0000000040309040E037700630068002E0036
:1055E00063006E001203430048003300320046009F
:1055F00032003000780016033000310032003300F2
:10560000340035003600370038003900303132338D
:1056100034353637383941424344454640305800E6
:105620003031323334353637383961626364656618
:105630004030780004000008000000000000000274
:1056400000010000100000007072696E74687562DD
:105650002D3E4855425F53617665446174612E4822
:1056600055425F496E666F2E706F7274445B707244
:10567000696E746875622D3E4855425F5361766568
:10568000446174612E43757272656E74506F7274EA
:105690002D315D2E446576696365547970653D25CD
:1056A000780A0000D457000800000020A80000007D
:1056B000DC0100087C580008A800002048460000D3
:1056C000F80100081001000043000000F8FFFFFF90
:1056D0000040404040404040404041414141414005
:1056E00040404040404040404040404040404040BA
:1056F0004005020202020202020202020202020249
:10570000022020202020202020202002020202024D
:1057100002029090909090901010101010101010A5
:1057200010101010101010101010101002020202B1
:1057300002028888888888880808080808080808F5
:1057400008080808080808080808080802020202F1
:105750004000000000000000000000000000000009
:105760000000000000000000000000000000000039
:105770000000000000000000000000000000000029
:105780000000000000000000000000000000000019
:105790000000000000000000000000000000000009
:1057A00000000000000000000000000000000000F9
:1057B00000000000000000000000000000000000E9
:1057C00000000000000000000000000000000000D9
:1057D00000000000010000000000000000000000C8
:1057E0000000000000000000006CDC02000000006F
:1057F0000000000001020304060708090000000081
:105800000000000000000000010203040102030484
:105810000607080902040608000000000000000056
:105820000100000000000000000000000000000077
:105830000000000000000000000000000000000068
:105840000000000000000000000000000000000058
:1058500000000000F00000000000000000F000F078
:105860000000000000000000000000000000000038
:0C5870000000000000000000000000002C
:04000005080001A14D
:00000001FF
